:020000040800F2
:10000000280C002081790008073F0008775300087A
:1000100000000000000000000000000000000000E0
:10002000000000000000000000000000475F000822
:10003000000000000000000037600008A76300080F
:10004000CB700008B7740008437B0008DF7B000812
:10005000E77B0008E97B0008EB7B0008ED7B0008EC
:10006000EF7B0008F17B0008F37B0008F57B0008BC
:10007000F77B0008F97B0008FB7B0008FD7B00088C
:10008000FF7B0008017C0008037C0008057C000859
:10009000077C0008A3580008097C00080B7C0008B6
:1000A0000D7C00080F7C0008117C0008137C000800
:1000B000F9550008157C0008695B000881B0E02252
:1000C000520080180268914203D34368D2189142CB
:1000D00002D380680028F5D101B070471848016844
:1000E00000290ED180214902816009094160002167
:1000F000C943C160016104214161124A1160124982
:1001000001600120704730B407230C0008341C4202
:1001100001D1002304E008240D000835641B2340AE
:10012000C918D21A8161C260012313434B6028238E
:10013000091D8B5002490969C16130BC704700003C
:10014000D8050020400200206859883CF0B587B0EF
:10015000060007200C000834044205D008240D00D6
:100160000835641B0440091903911100083101424C
:1001700005D0082114000834091B08401218170084
:100180000398C018049004460398381AC01A0190C6
:100190000320184303994860BC4201D301F0FEFAE2
:1001A00001257868284001D101F0F8FA019810285B
:1001B00001D201F0F3FAB069874207D1F0680199E2
:1001C0004018F060B4610543656077E1706987426B
:1001D00008D1B06801994018B0607461054365604A
:1001E00020506BE178688107890F012900D0D1E0A8
:1001F000072188430690C0081F2843D8B968029198
:10020000F968009105900098874201D101F0C6FA83
:100210000298874201D101F0C1FA7868072188432A
:100220000599C900884201D001F0B8FA30002830A1
:100230000599C90040180299814207D0326991425C
:1002400000D29FE0C968B94200D09BE00099029AB1
:10025000914206D13168059A012090408143316076
:1002600092E0814208D008463169884200D289E094
:100270008068B84200D085E00098D060029800996C
:10028000886081E0B8690290F968B94210D0B86816
:100290000091316988422CD3C168B94229D10099B3
:1002A0008968B94225D10099C1600099886022E02F
:1002B0003A00143210680090002805D13A0010323C
:1002C00010680090002816D0009801E00A0010681D
:1002D000010014310B68002BF8D1010010310B68BC
:1002E000002BF3D100903069824202D300201060CD
:1002F00001E001F053FA0298002845D09820400010
:100300003018F9698900401801688F420AD10099B4
:100310000160002915D17168FA690120904081437C
:10032000716031E002983169884208D30069B842AF
:100330000098029901D1086103E0486101E001F0F1
:100340002DFA009800281FD030690099814219D3F6
:100350000299009A91613969002908D0814204D339
:10036000009801610098886101E001F017FA78694E
:10037000002809D03169884204D300994861009966
:10038000816101E001F00AFA06983F180198069988
:10039000401801907868A84378600198284360600D
:1003A000019820500198C0081F2826D802903000DC
:1003B00028300299C900401800900746019810287B
:1003C00001D201F0EBF9306802990200CA402A40DC
:1003D00003D18D400543356008E00098806831699D
:1003E000884201D3070001E001F0D8F90098846049
:1003F000FC60A7600098E06060E00198000A25D0EA
:100400002904884201D31F2020E0FF21C94341185D
:10041000090C082211408840AE4A8218120C0423AD
:100420001A4000929040AC4A8218120C02231A40E3
:100430000E23591A009BC91A891A9040C00B08183C
:100440004100019AC01DC2402A40881898214900E5
:10045000711882008918E06100236361236172686A
:100460001700C7402F4004D18540154375600C60CC
:100470001DE009681F28019D01D1019805E019229E
:100480004008101A8540F8E739004A680727BA4340
:10049000824217D00A001032EF0FBF00D2196D0050
:1004A0001768002FF0D13069824205D31460A16132
:1004B000E4600498A06001E001F070F9039808304E
:1004C00007B0F0BD886832699142F5D39042F3D30A
:1004D000C460049A8A60A060E160A361EEE7FEB5A3
:1004E00084B005000E00AC692100FFF7E7FD01684C
:1004F0004068081800902738410701D1002003E028
:100500000821081A4007400F00990F182F3F2000BC
:100510001030874200D2270001963800183003902F
:1005200000200290059A283A01992800FFF7EBFD78
:1005300038000830400701D001F030F91B20786006
:10054000E02040002E18380008303100102201F061
:1005500043F901983060059870600698F0603800A3
:100560000830B06007230399029A009800E0091D43
:100570004B60521C0E0008368642F8D3012A01DC7B
:1005800001F00CF9A74200D196E0391B201D40185C
:10059000026801239A43026001260120084360603B
:1005A0006150C8081F2823D80190C000281828309F
:1005B00000900746102901D201F0F0F8286801994F
:1005C0000200CA40324003D18E4006432E6008E04C
:1005D000009880682969884201D3070001E001F092
:1005E000DDF800988460FC60A7600098E06063E03C
:1005F000080A25D01A04904201D31F2020E0FF22D0
:10060000D2438218120C08231A409040314BC31871
:100610001B0C04273B40009398402F4BC3181B0C26
:1006200002273B400E27BA1A009FD21BD21A9840CD
:10063000C00B10184200C01D0B00C3403340D0183F
:100640008200AA1898235B00D2180092E061002271
:10065000626122616B681F00C740374007D1864046
:100660001E436E60009804600098A0611FE0009B2C
:100670001B681F2801D1080006E019264008361A19
:100680000800B04000E03B005E680727BE438E4292
:1006900014D01E001036C70FBF00F619400037688F
:1006A000002FF0D12869864204D33460A361E4604E
:1006B000A46001E001F072F807B0F0BD9868296904
:1006C0008B42F7D38842F5D3C4609C60A060E3609E
:1006D000A261F1E700F0FFFF00C0FFFFF8B50400E2
:1006E0000E00764D2868002801D1FFF7F7FC009630
:1006F000A96870182F30491E8843864200D386E0CF
:10070000D82149006618B168002905D03268101850
:1007100082427CD281427AD301F078F8002876D0E8
:10072000010002680020C043814270D03068801808
:100730003060D82040002058D8235B00E3185B6865
:10074000984200D218007060A06900282AD1206960
:10075000002801D0814200D2216131617261002004
:10076000F0612B6863620023DB432362230028339C
:10077000DB601D469D6008355D611D61801C103386
:100780002028F5D34E48844201D1283A27E0201F83
:100790000068072398432018083889180A1A283A4D
:1007A00001001CE0E02040002018030000E09B68EE
:1007B000002B2ED01D685E68AD19A942F7D11D7BB4
:1007C0002D0726D4A7691E68B74222D35D68761923
:1007D000B7421ED2A8185860E0688218A1692000AC
:1007E000FFF791FC20E09B68002B19D01D68854223
:1007F000F9D1187B000713D4284619605D68AA1840
:100800005A60009B02002000FFF7A0FCF2BD002010
:10081000F2BD2369994200D2216103008818E3E701
:1008200000232000FFF75BFEE06800998142EED2D2
:10083000401AE060A169009A8A18A261012303436B
:1008400053600098032202434A6008000830F2BD5A
:1008500038B41A4A1368002B0ED180235B029360D0
:100860001B0953600023DB43D360136104235361EE
:10087000144C2360144B13603F22D243914219D28F
:100880008369002B16D0C268283191420CD2E02136
:10089000490041180C68A34203D34D686419A34270
:1008A00002D389680029F5D1C169914202D20021A1
:1008B000C943C161002032BC70470000D805002048
:1008C00084000020400200206859883CF2B584B0C2
:1008D00000244F42090A25D080225202914201D3BE
:1008E0001F211FE0FF22D2438A18120C08231A404E
:1008F0009140B84BCB181B0C04252B409940154D4B
:100900004D192D0C022635400E26B21AD21A521B52
:10091000A940C90B51184A00049BC91DCB40D907F7
:10092000C90F511801910090982149004018029078
:1009300001998900405800282BD001991F29049B58
:1009400004D01921019A5208891A8B400021049A77
:1009500003E000BF00C0FFFF5B0045680726B5430A
:10096000AD1ABD4203D204002F0000D18EE14569CB
:100970001030DE0FB6008059002D02D0854200D025
:1009800029000028E8D10492080000283DD1002C5D
:1009900040D1012301980121814048004142014397
:1009A00000984068084000D16DE142420240521E6A
:1009B000100B10210840C24051090825294003911D
:1009C000CA409108042529400191CA4051080225D6
:1009D0002940CA4055082B40029D039E8019019E64
:1009E00080194018C018DA408018800028580CE0A0
:1009F000100042689A43521ABA4201D2170004000A
:100A00000269002AF4D104914069002802D00499B7
:100A10000723EEE7002C00D135E1009880680499A7
:100A2000401A874200D32EE100980069844200D228
:100A300027E178180390606807218843039988426A
:100A400001D000F0ABFE04982518AC4200D318E1A9
:100A5000A0690190E668A6420DD0A06800990969D6
:100A6000884226D3C168A14223D1B168A14220D1D6
:100A7000C660B0601FE0200014300668002E07D169
:100A8000200010300668002E15D001E0080006682E
:100A9000310014310A68002AF8D1310010310A6897
:100AA000002AF3D100990969884202D3002101602C
:100AB00001E000F073FE0198002841D00298E1693E
:100AC0008900401801688C420BD10660002E17D1B6
:100AD000009840680121E26991408843009948608C
:100AE0002EE0019800990969884207D30069A04265
:100AF000019801D1066103E0466101E000F04EFE7D
:100B0000002E1DD000980069864217D30198B0616D
:100B10002069002808D000990969884202D3306111
:100B2000866101E000F03AFE6069002808D0009973
:100B30000969884202D37061866101E000F02EFEEF
:100B400003210120102F09D2039A11436160211D56
:100B5000039A89180A68104308608FE0049A1143C9
:100B60006160012139436960EF51F9081F2920D8DC
:100B7000009ACB00D218283201921646009A1268C9
:100B80001300CB40034004D1884010430099086013
:100B900008E0B06800990969884201D3060001E0C5
:100BA00000F0FCFD01988560F560AE600198E8609A
:100BB00064E0390A2AD00204914201D31F2125E0C2
:100BC000FF22D2438A18120C08231A400392914044
:100BD000004A01E000F0FFFF8A18120C04231A40BB
:100BE00001929140314A8A18120C02231A400E23B6
:100BF000039E9B1B019E9B1B9B1A9140C90B59187E
:100C00004A00C91D3B00CB400340D118029A8B001B
:100C1000D218E96100236B612B61009B5B681E00A9
:100C2000CE40064005D188401843009948601560C1
:100C30001EE012681F2901D1380006E0192049087A
:100C4000411A3800884000E01A0051680723994390
:100C5000B9421DD011001031C30F9B00C9184000CC
:100C60000B68002BF0D100980069814204D30D601D
:100C7000AA61ED60AD6001E000F090FD2000083059
:100C800002E000F08BFD002005B0F0BD04927CE690
:100C90009068009909698A42EED38842ECD3C56016
:100CA0009560A860EA600020A861E7E700C0FFFF48
:100CB000F3B585B0416848420840401E010B102240
:100CC0001140C840420908231A40D0408308042438
:100CD0002340D840440802252C40E0408507ED0F12
:100CE000059E98277F00F61901968918C9180919D9
:100CF0004919E8400818800030580400416807226C
:100D00009143069A8D1A1746072207E008004168AA
:100D10009143C91BA94201D20D00040001690029B9
:100D2000F4D140690028F2D105980069844200D2CC
:100D3000D7E060689043E919884201D000F02EFDA9
:100D4000E0190390844200D3CBE0A0690090E668EC
:100D5000A6420DD0A06805990969884226D3C168CA
:100D6000A14223D1B168A14220D1C660B0601FE08A
:100D7000200014300668002E07D1200010300668CD
:100D8000002E15D001E008000668310014310A6811
:100D9000002AF8D1310010310A68002AF3D10599F0
:100DA0000969884202D30021016001E000F0F6FCED
:100DB0000098002841D00198E16989004018016835
:100DC0008C420BD10660002E17D105984068012196
:100DD000E26991408843059948602EE000980599A2
:100DE0000969884207D30069A042009801D10661D1
:100DF00003E0466101E000F0D1FC002E1DD0059813
:100E00000069864217D30098B0612069002808D095
:100E100005990969884202D33061866101E000F0DA
:100E2000BDFC6069002808D005990969884202D391
:100E30007061866101E000F0B1FC0320102D09D241
:100E4000E91908436060201D4018016801220A4327
:100E5000026043E03843606001202843211DC851EF
:100E600003984551059880680290C608202E01D34A
:100E700000F094FC029800282BD00598406900905F
:100E800001960598F100471828373E00029810286F
:100E900001D200F083FC059801680120019A0B0043
:100EA000D340034004D1904008430599086008E00E
:100EB000B86805990969884201D3060001E000F08D
:100EC0006DFC0098B8600098F0600098866000980B
:100ED000C76005988560039805994861200008302F
:100EE00002E000F05BFC002007B0F0BDF8B586B072
:100EF000060000BF00BF0124BA4DF52E00D326E145
:100F00000B2E01D2102602E00B3607208643F10893
:100F10002868C840032738424FD0012282438818EE
:100F20000390280028300399C90040180190866872
:100F30000398C00002907068072188430299884294
:100F400001D000F02BFCB06800900198864201D1DE
:100F500000F024FC0098864201D100F01FFC70686C
:100F6000072188430299884201D000F017FC0198BC
:100F70000099884206D12968039A01209040814354
:100F800029600FE008462969884209D3C068B04249
:100F900006D100980199886001980099C86001E025
:100FA00000F0FCFB029807437760301D029940185F
:100FB00001680C430460370007E1AA68B24200D31D
:100FC000D8E0002800D1B8E001228A4052008840D1
:100FD00053421343034059421940491E080B102243
:100FE0001040C1404A0908231A400292D1408A08A1
:100FF00004231A400192D1404A0802231A40009269
:10100000D1404A082240029BC018019BC018009B97
:10101000C0188018D1404018039028002830039948
:10102000C90040180290806800900398C0000490A6
:1010300000984068072188430499884201D000F055
:10104000ADFB00988068019000980299884201D118
:1010500000F0A4FB00980199884201D100F09EFBAA
:1010600000984068072188430499884201D000F025
:1010700095FB02980199884206D12968039A0120BC
:1010800090408143296010E00846296988420AD3CC
:10109000C0680099884206D1019802998860029838
:1010A0000199C86001E000F079FB0498801B029070
:1010B000374300984760029820430099091D8851E2
:1010C000009880190590029805990850A868049026
:1010D000C608202E01D300F061FB0498002826D01A
:1010E00068690190039628002830F10047183E00F7
:1010F0000498102801D200F051FB286803990200DF
:10110000CA40224003D18C4004432C6007E0B868F9
:101110002969884201D3060001E000F03FFB0198F5
:10112000B8600198F060019886600198C7600298E5
:10113000A86005986861009F47E06868002836D07D
:1011400031002800FFF7B4FD070013D044E03F2032
:10115000C043864202D30026F6430BE00B3607203D
:1011600086436868002805D031002800FFF7AEFBF1
:10117000070031D1AA68B24219D3931B68690321D1
:10118000102B08D382196A61AB601C435460D350A2
:101190003143416009E00023AB606B611143416062
:1011A000011D89180A6814430C6007000DE0E86807
:1011B00086420CD2801BE860A9698A19AA6104439F
:1011C00054600320304348600F00083704E03100CA
:1011D0002800FFF783FA070000BF00BF380007B000
:1011E000F0BD000084000020002800D17047F8B551
:1011F00084B00838050000BF00BF3D4C206985421F
:1012000000D2B5E26868032103220240012A00D11E
:10121000AEE2C708FF00EA1900920126304241D130
:101220002A68084000D1A5E2BF1850422D18206955
:10123000854200D29CE26069854200D1EFE0D0088F
:10124000202869D2A9680291E96801910390019868
:10125000854201D100F0A2FA0298854201D100F046
:101260009DFA6868072188430399C900884201D024
:1012700000F094FA200028300399C9004018029920
:10128000814205D02269914243D3C968A94240D125
:101290000199029A91422DD12168039A0120904030
:1012A000814321600098854200D361E2406830426A
:1012B00000D15DE2810700D5B3E10099A2699142B6
:1012C00000D0BCE0E068C019E060A56106436E6034
:1012D00061698D4202D100216161A160E1698142B1
:1012E00000D347E200212000FFF7B2FA42E200BF3C
:1012F00084000020814206D008462169884208D334
:101300008068A84205D10198D06002980199886050
:10131000C8E700F043FAC5E7A8690290E968A94266
:1013200010D0A8680191216988422CD3C168A942D4
:1013300029D101998968A94225D10199C1600199F2
:10134000886022E02A00143210680190002805D13C
:101350002A00103210680190002816D0019801E090
:101360000A001068010014310B68002BF8D101004D
:1013700010310B68002BF3D101902069824202D317
:101380000020106001E000F009FA0298002889D0DE
:10139000982040002018E9698900401801688D42B2
:1013A0000AD101990160002915D16168EA6901201B
:1013B00090408143616075E702982169884208D3B3
:1013C0000069A8420198029901D1086103E04861CF
:1013D00001E000F0E3F90198002800D162E72069FC
:1013E0000199814295D30299019A91612969002955
:1013F00008D0814204D3019801610198886101E01D
:1014000000F0CCF96869002800D14BE721698842D7
:1014100000D27EE7019948610199816142E7009815
:1014200040680140032900D03CE7A760009840686D
:10143000B043009948603E436E60EF519AE16269A3
:10144000914207D1A068C019A060656106436E6033
:1014500028508FE1072188433F18C00820284AD22E
:101460000099896802910099C968019103900098D8
:101470000199884201D100F091F9009802998842BF
:1014800001D100F08BF90098406807218843039947
:10149000C900884201D000F081F92000283003996A
:1014A000C90040180299814208D02269914200D2B5
:1014B000ACE0C968009A914200D0A7E00199029A75
:1014C000914206D12168039A012090408143216016
:1014D0009EE0814209D008462169884200D295E009
:1014E00080680099884200D090E00198D06002980E
:1014F000019988608CE00098806902900098C0682B
:101500000099884212D0009989680190206981422F
:101510002DD3C868009A904229D1019880689042E2
:1015200025D10198C8600198816022E0009A1432A8
:1015300010680190002805D1009A103210680190BF
:10154000002816D0019801E00A001068010014314B
:101550000B68002BF8D1010010310B68002BF3D180
:1015600001902069824202D30020106001E000F067
:1015700015F9029800284BD09820400020180099B7
:10158000C969890040180099026891420BD10199FC
:101590000160002917D161680098C269012090405C
:1015A0008143616034E002982169884209D300696F
:1015B000009988420198029901D1086103E04861CD
:1015C00001E000F0EBF80198002821D02069019992
:1015D00081421BD30299019A9161009909690029FE
:1015E00008D0814204D3019801610198886101E02B
:1015F00000F0D4F800984069002809D02169884299
:1016000004D3019948610199816101E000F0C6F8B5
:10161000012038436860EF516069854208D1A760B6
:10162000A8E0B04300994860012038436860EF515A
:10163000F808202827D20290200028300299C900FB
:10164000401800900190102F01D200F0A7F82068F8
:1016500002990200CA40324003D18E400643266000
:1016600008E0009880682169884201D3019001E078
:1016700000F094F8009885600198C5600198A86012
:101680000098E86076E0380A01D1002225E03104B4
:10169000884201D31F2220E0FF21C9434118090CD1
:1016A0000822114088403B4A8218120C04231A4039
:1016B00000929040384A8218120C02231A400E23DE
:1016C000591A009BC91A891A9040C00B081841008A
:1016D000C01D3A00C24032408A18982040002018AD
:1016E000910040180090EA610020686128616168FB
:1016F0000B00D340334007D196400E4366600098FC
:1017000005600098A8611FE0009909681F2A01D1AF
:101710003A0006E0192352089B1A3A009A4000E06A
:1017200031004B680726B343BB4227D00B00103370
:10173000D60FB6009B1952001E68002EF0D120690A
:10174000834204D31D60A961ED60AD6001E000F04B
:1017500025F8206A401E20620CD1E4204000205869
:1017600000E080680028FCD10020C043206201E036
:1017700000F014F800BF00BF05B0F0BD8A6823690F
:101780009942E4D39A42E2D3D5608D60AA60E960C1
:10179000A861DEE700F0FFFF00C0FFFF80B5012079
:1017A00000F04AF801BD0268531C036011707047D5
:1017B000124207D08B0706D00B78491C0370401CDF
:1017C000521EF7D87047830706D00B78491C037068
:1017D000401C521EF9D1704770B4103A03D378C937
:1017E000103A78C0FBD2530701D318C918C001D5ED
:1017F00008C908C0D20704D30B880380891C801C49
:10180000002A01D50B78037070BC7047074908683F
:10181000002801D000207047054807229043086047
:1018200004499143091A0160704700BF6406002013
:101830002F0C0020280E002080B500BF00BF024AF8
:1018400011001820ABBEFBE72600020010B50C000B
:1018500000F0CEFF012204E010B50C0000F0C8FF3C
:101860000022210000F086FFBF4800F027FF10BDD6
:1018700038B50C001022002100F0EAFF050000201E
:10188000C043854207D000F0B3FF2A00210000F0DA
:1018900095FFB54800E0B54800F010FF31BD1CB51C
:1018A0000C00684600F0EEFF00F0A2FF6A4621003F
:1018B00000F08EFFAC4800F001FF13BD38B586B0D4
:1018C0000D000100684601F017F802A800F0DAFFE9
:1018D0006C46A08803280BD16A46CAA104A801F06F
:1018E00006F904A9684601F0D4F804A801F011F83B
:1018F00002A9684601F0E3F900280BD0A08840084F
:1019000002A9C87100F074FF02AA290000F060FF6C
:10191000954800E0954800F0D1FE684600F0F9FFD8
:1019200007B030BD80B509E080B501F09DFA002117
:1019300003E080B501F098FA012101608A4800F0C7
:10194000BDFE01BD80B501F08FFA0221F5E77047B9
:10195000F8B584B00700684600F094FF00F048FF37
:101960000400B888FB26B600F51E002812D16A468E
:101970002900200000F02CFF6A463100200000F012
:1019800027FF01F0D1FA01F033FC774800F096FE12
:1019900005B0F0BD032801D0082817D1002003901E
:1019A000029003AA02A9380001F0FAF90220694660
:1019B000C87102A802680A606A462900200000F087
:1019C00007FF03A8694602680A60D5E76748DDE7B4
:1019D000F1B582B000F00CFF0500B84900F003FF3C
:1019E0000600B749280000F0FEFE04005E4F1022FA
:1019F0000021029800F02CFF002803D002280BD011
:101A000002D313E000220BE0F07900280ED0E07939
:101A100000280BD0012203E0E079002806D0022242
:101A20006521280000F0CAFE380000E04F4800F0B1
:101A300045FEF7BD80B5FFF741FF01F075FA01F0F3
:101A4000D7FB01BD80B500BF04A000F037FE00BF8A
:101A50000BA000F033FE00BF1CA070E7436F70794D
:101A600072696768742028632920323030392D323A
:101A7000303138204F6264446961672E4E657400CE
:101A800054686973206973206672656520736F6698
:101A900074776172653B2073656520746865207397
:101AA0006F7572636520666F7220636F7079696EFF
:101AB0006720636F6E646974696F6E732E2054685B
:101AC000657265206973204E4F0000007761727265
:101AD000616E74793B206E6F74206576656E20664A
:101AE0006F72204D45524348414E544142494C4942
:101AF0005459206F72204649544E45535320464F47
:101B000052204120504152544943554C415220509B
:101B10005552504F53452E0080B501F005FA01F0A3
:101B20004DFB01BD80B501F00BFC01BD80B500BFD0
:101B300000A004E7312E32310000000080B501F032
:101B4000F3F901F013FA01BD80B501F0EDF901F0F0
:101B500001FA01BD80B501F0E7F901F001FA01BD1C
:101B600080B59648EBE60000C01D00083C27000841
:101B7000704780B501F0D8F901F011FB01BD80B5C7
:101B800001F0D2F901F03AFB01BD10B5040001F0FB
:101B9000CBF9210001F038FB10BD38B505000C0071
:101BA00000F026FE0022042100F0E4FD21002800C0
:101BB000FFF75EFE31BD80B501F0B6F901F0E9FA3C
:101BC000BCE600005EB501F0F6FBB8494843B849F1
:101BD00001F014FC441D2000642101F00FFC0800FA
:101BE0000A2101F00BFC06002000642101F006FC34
:101BF0000200330004A1684601F01EFC684600F0B4
:101C00005DFD57BD3000000025642E25316456006F
:101C10007CB50024002581880268A64E1378412BEC
:101C20002AD1022928D15178422937D00223012212
:101C30000100684600F002FF10220021684600F013
:101C400007FE0400684600F064FE012500F0D0FDA8
:101C50002A002F2100F08EFD01F066F901222100FB
:101C600001F08AF901281FD100F0C2FD220069218C
:101C700000F0A4FD52A01EE001290FD10223002292
:101C80000100684600F0DAFE10220021684600F0EC
:101C9000DFFD0400684600F03CFED7E7B3A100F08A
:101CA0001DFF002806D0D0E700F0A2FD00222F2162
:101CB00000F060FD300000F001FD73BDEB0300009B
:101CC000EA03000010B588B0040006A800F0DAFDB1
:101CD00004A800F0D7FD02230022210002A800F092
:101CE000ADFE0023DB4302222100684600F0A6FE81
:101CF00006A902A800F0E3FF002805D004A9684661
:101D000000F0DDFF002801D16A4816E002A88088B3
:101D1000400806A9C87100F06BFD06AA944900F0BE
:101D200057FD68468088400804A9C87100F060FD2E
:101D300004AA904900F04CFD21A000F0BFFC6846C9
:101D400000F0E7FD02A800F0E4FD08B010BD0000BF
:101D500070B506000C00002587A100F0BFFE00282A
:101D600006D186A1300000F0B9FE00280AD0012576
:101D700000F03EFD2A00210000F0FCFC10A000F065
:101D80009DFC70BD4B48FAE710B504007AA100F045
:101D9000A5FE002808D0012400F02AFD22006F21B2
:101DA00000F00CFD06A060E575A1200000F096FE95
:101DB000002801D00424EFE73E48F4E7402700085C
:101DC0004F4B000010B500F013FD040001F0ACF81B
:101DD0000122002101F0D0F8200000F01FFD0022B8
:101DE0001821200000F0C6FC01222321200000F071
:101DF000C1FC01221421200000F0BCFC01222C2196
:101E0000200000F0B7FC01222F21200000F0B2FCDE
:101E100001222121200000F0ADFC00220921200038
:101E200000F0A8FC01220A21200000F0A3FC0122FE
:101E30000421200000F09EFC00220E21200000F072
:101E400099FC01220D21200000F094FC01221E21AA
:101E5000200000F08FFC00222021200000F08AFCEE
:101E600033226821200000F0A9FC96227021200076
:101E700000F0A4FCF1226721200000F09FFCF12279
:101E80006721200000F09AFC01226F21200000F061
:101E900095FC10BD80B5FFF795FF4FE580B5FFF7C6
:101EA00091FF01F047FB374849E50000BC04000002
:101EB000540A00003C270008F8B586B006000C0064
:101EC00015000027FF43280001D0230000E03B005D
:101ED00002223100684600F0B1FD00BF2BA0A41C17
:101EE0000494C421C900411805910400207A0028F7
:101EF00000D00120A84218D12168684600F0EEFD0C
:101F0000002812D0280025D03B00049A310002A8F6
:101F100000F094FD02A88088217A884202DB617A71
:101F200081421BDA02A800F0F4FC103405988442C8
:101F3000DCD1684600F0EDFC002007B0F0BD616820
:101F400002A8904702A800F0E4FC684600F0E1FC1B
:101F50000120F2E70CA102A800F0C1FCE268002A0F
:101F6000EDD102A800F0D5FCE3E70000303000001E
:101F7000ED030000EE03000031000000350000001A
:101F80003400000040270008000000002073000813
:101F90001000000000000000451A0008247300082B
:101FA0003200000000000000191B00082873000820
:101FB0001700000000000000251B00083073000817
:101FC00030000000000000002D1B000834730008E2
:101FD00003000000000000004D18000838730008DE
:101FE00004000000000000004D1800083C730008C9
:101FF00000000000000000002919000840730008DC
:1020000001000000000000003319000844730008BC
:102010000200000000000000451900084873000895
:1020200005000000000000003D1B0008347300089C
:102030000300000000000000251900084C73000890
:1020400006000000000000004D1800085073000852
:102050006E000000020200007118000854730008AE
:102060006C0000000202000071180008587300089C
:102070000800000000000000591800086073000804
:1020800008000000000000004D18000868730008F8
:10209000E8030000000000009F18000868730008B3
:1020A000E803000002020000BD1800086C7300087D
:1020B0006700000002020000711800087073000839
:1020C000E903000003030000351A000870730008DC
:1020D000E903000008080000351A000874730008BE
:1020E0000A00000000000000591800087C73000876
:1020F0000A000000000000004D180008847300086A
:10210000EC03000003030000351A00088473000884
:10211000EC03000008080000351A00088873000866
:10212000ED03000002020000BD1800088C730008D7
:102130006600000000000000511900088C730008C0
:102140006600000003030000511900088C730008AA
:10215000660000000808000051190008907300088C
:102160000C000000000000004F19000894730008E4
:102170000D00000000000000591800089C730008C2
:102180000D000000000000004D180008A4730008B6
:102190000E00000001010000511D0008A873000896
:1021A000070000000404000025190008AC730008B3
:1021B0002A00000000000000951E0008B07300080F
:1021C000090000000000000059180008B47300085E
:1021D00009000000000000004D180008B873000856
:1021E0001C000000000000007F1B0008BC730008FA
:1021F0001200000000000000491B0008C073000826
:102200001100000000000000551B0008C473000806
:10221000140000000000000059180008C8730008EE
:1022200014000000000000004D180008CC730008E6
:10223000EA030000020A0000BD180008D473000879
:10224000EB03000003030000BD180008D47300086E
:10225000EB03000008080000BD180008DC7300084C
:102260006500000001010000D1190008E4730008B6
:10227000160000000000000025190008E87300089F
:10228000150000000000000025190008EC7300088C
:10229000180000000000000059180008F073000842
:1022A00018000000000000004D180008F47300083A
:1022B0001900000000000000611B0008F87300080E
:1022C0001B00000002020000711B0008FC730008E4
:1022D0001A00000001010000251900080074000820
:1022E0006800000002020000711800080474000871
:1022F0001D000000000000005918000808740008C4
:102300001E000000000000005918000810740008AA
:102310001E000000000000004D180008187400089E
:102320001D000000000000004D1800081C7400088B
:102330002000000001010000511D00082074000869
:102340002200000000000000731B00082474000835
:10235000210000000000000059180008287400083F
:1023600021000000000000004D1800082C74000837
:102370002300000000000000591800083074000815
:1023800023000000000000004D180008347400080D
:10239000240000000000000025190008387400081F
:1023A0002500000000000000591800083C740008D7
:1023B00025000000000000004D18000840740008CF
:1023C0001F000000040700008B1B00084474000875
:1023D00003000000000000004D18000848740008C9
:1023E000F003000004040000BD1800084C7400084D
:1023F0002600000000000000B71B00085074000811
:10240000130000000000000025190008587400089F
:102410001300000000000000251900086074000887
:10242000290000000000000059180008647400082A
:1024300029000000000000004D1800086874000822
:102440006A00000002020000711800086C740008A5
:102450000B0000000000000025190008707400083F
:102460002700000000000000C51B0008747400086D
:102470002C000000000000005918000878740008C3
:102480002C000000000000004D1800087C740008BB
:10249000EE03000003030000BD1800087C74000870
:1024A000EE03000006060000BD1800087C7400085A
:1024B000EE03000008080000C51C00088074000836
:1024C0002B0000000000000025190008847400089B
:1024D0006900000001020000111C00088874000857
:1024E0006B000000020200009B1B00088C740008B7
:1024F0002D000000000000004D1800089074000836
:102500006D000000020200007118000894740008B9
:1025100070000000020200007118000898740008A2
:10252000EF03000002020000711800089C7400080C
:102530002E00000001010000111C00089C7400081E
:102540002E00000002020000111C0008A074000808
:102550000F0000000000000059180008A4740008D3
:102560000F000000000000004D180008A8740008CB
:102570006F00000001010000891D0008AC74000814
:10258000F1030000020C0000BD180008B074000840
:1025900031000000000000009D1E0008B474000817
:1025A00028000000000000009D1E0008FEB5060087
:1025B00001245A4D2878002809D12C7000220821C6
:1025C000281D01F003F8564A564901F0ACF8009670
:1025D0000026009F3889002801D12F1D08E03846C9
:1025E00001F071F8002803D10099281D01F002F8CC
:1025F000787D002805D000F097FC390000F010FD30
:1026000031E002230022391D684600F017FA46A186
:10261000684600F063FA00281CD000220421381D0F
:10262000FFF74AFC00280DD101220421381DFFF7D5
:1026300043FC002806D101220321381DFFF73CFC92
:10264000002801D0012605E001220221381DFFF7F4
:1026500033FC0600684600F05CF9002E03D100BF91
:1026600036A000F02BF831A1684600F038F901F0EF
:1026700098F8684600F04DF9F7BD0000E0B52CA1D0
:10268000684600F02CF9FFF79DFB00F053FF00BFF8
:102690002BA000F013F8684600F03BF923A1684630
:1026A00000F01DF901F07DF8684600F032F907BD31
:1026B00080B500F039FC00F07BFD01BD1CB50400C5
:1026C00001F0C5F8811C684600F0FFF8210000F019
:1026D000EEF909E01CB50400A188891C684600F0E9
:1026E000F4F8210000F0C2F9684600F004F86846EA
:1026F00000F00FF913BD10B5040000F079F82321A4
:1027000000F050F8002801D00AA100E00AA1200042
:1027100000F07DF9200001F044F810BD30040020E5
:1027200058060020797B0008415400003E0000005C
:10273000000000000D0A00000D0000003F00000036
:10274000454C4D3332372076322E310010B504001F
:102750000020002103C4083C0A2308222B49200042
:102760003C3000F0CDFF34212000083001F0A2F809
:10277000200010BD38B50B00412B12DA1400050003
:10278000012000211A0001F097F80CCD083D002C23
:1027900002D01043194303E0C043C943104019401D
:1027A00003C531BD00B50A00412A01DB002000BD90
:1027B00003C801F093F8C007C00F00BD890040189E
:1027C00013494250704789004018114940587047DA
:1027D00080B50B001100DA0080180E4A801808221C
:1027E000FEF7E6FF01BDC90040180A4940187047CE
:1027F00010B5094C2078002805D101202070200058
:102800000830FFF7A3FF2000083010BD852800081E
:1028100078FEFFFFFCE0FFFF5004002038B50022E7
:1028200000230CC008380100083101E00A60091DCE
:1028300003003C339942F9D104003C3405008C3547
:1028400003E0200001F059F80834AC42F9D131BD61
:1028500080B5002901D083880B600021006801F059
:10286000F7F802BD102802DA02A1085C70470020C8
:102870007047000030313233343536373839414211
:102880004344454610B5040001F037F8200010BD60
:1028900010B50400332901D3491C00E03321E18045
:1028A000E08801F001F9206020480168E288891879
:1028B000016010BD0A680260CA88C2808A8882806E
:1028C000002008608880C880704710B50400FFF7BA
:1028D000DFFF002022681070A080200010BD38B5F6
:1028E00004000D00280000F0B2FFA080A1882000A5
:1028F000FFF7CEFF290007E038B504000D00A988D6
:10290000A180FFF7C5FF2968206801F0D1F82000F9
:1029100032BD10B50400206801F004F903480168D5
:10292000E288891A0160200010BD00004C060020DA
:102930008288914204D281800021026880881154EB
:102940007047F8B505000C00A888002684420DD316
:10295000A0420FD21700491C280000F00CF8A888EC
:102960003A00211A2B68181800F07AFFAC8028680A
:10297000A9884654F1BD70B504000D00E088A84256
:102980000CD2280001F090F80600A2882168FEF71A
:102990000FFF206801F0C6F82660E58070BD70B5B5
:1029A00004000E00300000F052FF0500A08841191D
:1029B000491C2000FFF7DFFF31002068A288801843
:1029C00001F076F8A0884019A080200070BD70B595
:1029D00004000E001500A0884119491C2000FFF7D3
:1029E000CAFF2A0031002068A388C018FEF7E0FE65
:1029F000A0884019A0800021226880B211542000D4
:102A000070BD80B58A880968FFF7E1FF02BD80B517
:102A1000FFF7C5FF02BD38B504000D00A188891C71
:102A2000FFF7A9FF2068A1884554A088401CA0801A
:102A30000021226880B21154200032BDF8B50E008A
:102A4000B1888A4201D3002400E01400994201D2E7
:102A50000D1B00E01D000700691CFFF736FF2A0070
:102A6000306801193800FFF7B2FFF1BD38B5050035
:102A70000C00A5420BD0A188491CFFF77CFFA2885F
:102A8000521C21682868FEF793FEA088A8802800C1
:102A900032BD38B505000C00A54206D0286801F00B
:102AA00041F821002800FFF705FF280032BD70B56E
:102AB00004000E00300000F0CAFE0500691C200072
:102AC000FFF759FF3100206800F0F2FFA5802000D9
:102AD00070BD0021818000680170704780B5FFE7FC
:102AE000006801F02BF8401E8041C00F02BD70B598
:102AF00004000D001600280000F0A9FEB18841185E
:102B0000491C2000FFF7E1FE29002000FFF77FFFAE
:102B1000FFE731002000FFF774FF70BD71B583B08F
:102B20000C0016001A00684601F04CF80F25002E24
:102B300003A808D140782840FFF794FE0100200048
:102B4000FFF769FF3DE0C0780009FFF78BFE010049
:102B50002000FFF760FF03A8C0782840FFF782FE3F
:102B600001002000FFF757FF684601F02EF803A888
:102B700080780009FFF776FE01002000FFF74BFF89
:102B800003A880782840FFF76DFE01002000FFF7C2
:102B900042FF684601F019F803A840780009FFF7E2
:102BA00061FE01002000FFF736FF03A840782840AF
:102BB000FFF758FE01002000FFF72DFF684601F0E7
:102BC00004F86846007B0009FFF74CFE0100200076
:102BD000FFF721FF6846007B05402800FFF742FE13
:102BE00001002000FFF717FF7FBD70B505000C0046
:102BF0001600FFF7FDFD2C21FFF7D4FD0300320086
:102C000021002800FFF78AFF70BD30B5050011D004
:102C1000134C14480068FA21890000F0EFFB45438B
:102C200065600020A06005202060802040022168AF
:102C30000140FCD030BD30B50500094C09480068A2
:102C4000094900F0DBFB4543323D65600020A06090
:102C5000052020608020400221680140FCD030BD6A
:102C600010E000E02400002040420F00F8B504000E
:102C70000D0000BF76A12800FFF719FF207800287B
:102C80001CD029688E1C0009FFF7ECFD3070286805
:102C9000C71C0F2620783040FFF7E4FD3870286805
:102CA000C71D60780009FFF7DDFD38702D68083515
:102CB000607806403000FFF7D5FD2870F1BDF8B50B
:102CC00084B087880022D21952085200BA1A00D064
:102CD0007F1E002500240390029103E00298065510
:102CE000AD1C641CF80FC0194010844213DA022393
:102CF0002A0003996846FFF7A1FE102200216846CA
:102D0000FFF7A6FD06006846FFF703FE0020C0435C
:102D10008642E3D1002005B0F0BDFEB506000F00ED
:102D200014002100684600F05AFF002514E0705D91
:102D30000009FFF797FD01002000FFF76CFE705DB2
:102D40000007000FFFF78EFD01002000FFF763FE74
:102D5000684600F03AFF6D1CBD42E8D3200069468A
:102D60000979002905D08188002902D0491EFFF782
:102D7000DFFDF7BD0102FF2212020A400004000E2F
:102D80001043704701060202FF231B0413400B434C
:102D9000010AFF2212020A401A43000E1043704734
:102DA000F7B582B00026002400250700B8888542C8
:102DB00032D20F20C04306403968495D582913D0EC
:102DC00020000F24044301232A0039006846FFF73E
:102DD00035FE102200216846FFF73AFD3043060019
:102DE0006846FFF796FD02E0210004000C40B88819
:102DF000401E854201D2240136016D1CD6E7082809
:102E000008D1C800C008FFF7BDFF28603000FFF7F9
:102E1000B9FF206005B0F0BD2100049D039C03288C
:102E2000EDD14805400DFFF7A5FF28603000FFF702
:102E3000A1FFEEE710B5491E002205E0835C445C6B
:102E400084544354491E521C8A42F7DB10BD0000D3
:102E5000313A2D2D20323A2D2D0000000121016044
:102E6000002141608160704710B5054C2078002832
:102E700004D101202070201DFFF7F0FF201D10BDA0
:102E8000F005002013B50400A068012802D8401CFA
:102E9000A06013BD200000F01EF8009001A9201DC5
:102EA00000F0A8FE694600F0ABFE0068606013BD4C
:102EB00080B501004868002809D00A68012A02D0BC
:102EC000022A02D003E01E3002BD0A3002BD080013
:102ED00000F001F802BD38B50400FFF789FC6D2150
:102EE000FFF771FC0500200000F00CF8002802D06C
:102EF000A800401900E02800002D01D0800032BD5C
:102F0000C82032BD80B500F00FF800F03CF9801FFA
:102F1000032801D9401F05D1FFF76AFC0E21FFF7F6
:102F200041FC02BD002002BD10B5054C20780028F0
:102F300004D101202070201D00F004F8201D10BDD8
:102F40003806002010B50400012000F0ABFA206024
:102F5000200010BD80B5006801688968884701BD00
:102F600080B500680168C968884701BD80B5006800
:102F700001680969884701BD70B50400150026681D
:102F80000B294BD801A0405C874400BF0C404A4E3F
:102F90006474848890908C84012000F083FA20600F
:102FA000042000F07FFA0021026852699047002D4A
:102FB0000AD02068864207D030003168C969884746
:102FC0002068016889698847012070BD022000F0EF
:102FD00069FA2060EBE70320F9E7042000F062FAC9
:102FE0002060002DF0D00321026852699047E0E78D
:102FF000042000F057FA2060002DE5D00421F3E70B
:10300000042000F04FFA2060002DDDD00521EBE711
:103010000520DCE70620DAE70720D8E7022070BDAC
:1030200080B500F023F8801E09281BD801A1095C97
:103030008F4400BF0A1014181C362024282C00BF0F
:103040008CA010E08CA00EE08EA00CE08FA00AE017
:1030500090A008E097A006E099A004E09BA002E001
:1030600091A000E09CA0FFF729FB01BDF1B582B063
:103070000F00380000F02DFB01903969029800F034
:1030800066F8002801D10320FEBD0298006801798E
:10309000002906D0019B3A69F96804686468A04772
:1030A000FEBD00BF71A1381DFFF718FD002807D035
:1030B000FFF73AFF00F067F8461EB641F60F00E052
:1030C0000026012000F0EEF90090029800680099B7
:1030D000884208D1310000980268126890470400C5
:1030E0000298006819E031000268126890470400F5
:1030F00002980068C568FFF77BFB2F21FFF752FBA2
:10310000002C0BD1002820D0042D1ED131000098B6
:1031100002681268904704000098C568002C14D01B
:10312000002221000298FFF727FF002E02D0E41EA4
:10313000032C09D202980068019B3A69F968046877
:103140006468A047050000E007252800FEBD70B5B3
:1031500005000C000826042000F0A4F9296881422B
:1031600001D1092607E0032000F09CF9296881427B
:1031700001D182263601002C01D0A64201DA0020BE
:1031800070BD012070BD80B500680168896A8847FC
:1031900002BD80B500680168C969884701BD80B576
:1031A000042000F07FF90168C96A8847012002BD48
:1031B00080B500680168496A884701BD80B5022072
:1031C00000F070F90168096A8847032000F06AF985
:1031D0000168096A8847042000F064F90168096AF7
:1031E0008847052000F05EF90168096A884701BD3B
:1031F00080B500680168096B884701BD80B500682B
:103200000168496B884701BDF8B584B005000F001F
:10321000BA880D2A27D20024E443D00710D5012311
:10322000521E6846FFF70AFC102200216846FFF78D
:103230000FFB06006846FFF76CFB002E00D0340041
:103240002E0002A93800FFF73AFD050029003000E2
:10325000FFF77DFF002806D0306823002A0002A96E
:103260000468A46BA04705B0F0BD000030313030D9
:10327000000000003F0000004441544120455252EC
:103280004F5200004E4F2044415441004552524F8E
:1032900052000000554E41424C4520544F20434FB0
:1032A0004E4E4543540000004642204552524F5274
:1032B00000000000425553204255535900000000C1
:1032C000425553204552524F520000004441544150
:1032D000204552524F523E0050726F6772616D200E
:1032E0004572726F72000000F3B581B006002821AC
:1032F000FFF7EBFA00270298B9004058032400902A
:103300006846055D2809FFF7ADFA01003000FFF7B8
:1033100082FB2807000FFFF7A5FA01003000FFF736
:103320007AFB641EECD52D213000FFF774FB7F1C67
:10333000032FE0DDB088411E3000FFF7F9FAF7BD3A
:10334000E0B505496846FFF7CFFF6846FFF7C2F9C9
:103350006846FFF7DEFA07BDACF7FF1F7047002194
:103360000171704710B588B08020C00500F04EFC98
:103370000121480200F0F8FC20200090032069465B
:10338000087148710024CC801A48006800F010FDD4
:1033900002A800F06DFD02A90C7104940594069436
:1033A000154C200000F052FD07222021200000F0E3
:1033B00070FD08B010BD38B50F4C200000F06EFD58
:1033C0000121200000F05CFD200000F080FD0421C0
:1033D000200000F084FD0028F9D0200000F07CFDE2
:1033E0000500200000F06EFD0021200000F048FDE7
:1033F000280032BD0000002000240140094214D002
:1034000088420FD30122030C01D1000412040023CF
:1034100000185B418B4200D35B1A5241F8D319006C
:103420001000704701000020704708B500F06AFDE9
:1034300008BD0121017170470CB418B583B00400B8
:103440000A0006A8029001940020009002AB01A996
:10345000084878441E3000F057FD0021019A117091
:10346000002801D40198001B04B0019910BC03B0DE
:10347000084700BF33E3FFFF80B500F001F802BD4D
:1034800010B504004D482060FFF7B2F9A06000209D
:1034900020710420E060200010BD00210171042192
:1034A000C160704770B504000125454E3078002892
:1034B00004D135703000083000F0ECFF707800283F
:1034C00004D175703000183001F010F8B078002881
:1034D00004D1B5703000403001F0F0FCF0780028E5
:1034E00004D1F57030005C3001F0F2FC3079002836
:1034F00004D135713000783001F0F6FC012C08D091
:10350000042C09D0052C0AD0062C0BD0072C0CD08B
:103510000EE03000083070BD3000183070BD300053
:10352000403070BD30005C3070BD3000783070BD10
:10353000002070BD80B5002022490860802149002C
:10354000214800F0B7F901BDF8B50400E0680004B7
:103550001BD01D4D802149001A4E30681030884222
:1035600004D900203060280000F0A4F9E26892B28B
:103570000F2A00DD0F223768EA557F1C376061682B
:10358000E819FEF715F90F373760F1BD7CB5002457
:10359000802676000C4D32216846FFF796F902002E
:1035A00010212819FFF7B9FB6846FFF7A4F8684611
:1035B000FFF7AFF91034B442EDD373BD447900087E
:1035C000E8040020500600205C02002070B50500D1
:1035D0000C0016001021281DFFF777F90020286144
:1035E000287501206875A01900F05EFAE8602C606B
:1035F000280070BD38B505000C00A54213D0211D70
:10360000281DFFF733FA29002000103000F0F8FAE7
:1036100000682861207D2875607D68752A69E168E9
:10362000E868FEF7C5F8280032BD202900D17047B0
:103630007CB500293BD00400080001F093FE050092
:103640000026607D00280ED0E8B20100613906290D
:1036500008D301004139062904D330380A288041B3
:10366000C00F00E0012060752089102803D2E9B264
:10367000201DFFF7D0F920692168884217D2607DAC
:10368000002813D0207D002810D068460660217DD8
:10369000017045702569681C206110220021684670
:1036A00000F0D6F9E1684855267573BD257573BDE0
:1036B00010B50400201DFFF70CFA002020612075D2
:1036C0000120607510BD006909288041C043C00F0A
:1036D00070471CB50024E443017D00290ED0016928
:1036E00009290BD2694600220A80007D0870102249
:1036F0000021684600F0ACF9002800D1200016BD7A
:10370000F8B500900C000CD00446002C09D0002B1A
:1037100007D00D0017001E002000A847E419761EF0
:10372000FAD10098F2BD80B503000800190001F03D
:103730002FFE02BDE0B507000026FFF759F8344D13
:103740001421FFF72FF8002813D00A2F15D03900C5
:10375000286801F00FFF0D2F0BD1FFF749F8232147
:10376000FFF720F8002806D00A21286801F002FFA0
:1037700001E00D2F01D1012611E0380020385F282B
:1037800009D3380001F03EFF002804D1380001F0D1
:1037900042FF002803D039006868FFF746FF300079
:1037A000E0BD80B501001A48006801F0EAFE01BDE5
:1037B00038B5182001F038FF0024002804D0042276
:1037C00082210901FFF702FF114D6860C0681149AD
:1037D000086001F034FE2860E121490201F063FE37
:1037E0000D4829680865FFF7B9FDFEF747FF07E0B8
:1037F0004C2284546868FEF7D9FE6868FFF758FFCA
:1038000028684C21415C0029F2D1FEF751FFF7E70F
:1038100018060020480600203537000880B501F062
:1038200081FF01F0C7FF002002F086F8012002F0BE
:1038300083F801F014FE02F0E7F802F0C4F902F098
:10384000F3FAFFF78FFDFFF7B3FF002002BD010081
:1038500000E0491C0A78002AFBD1081A704770471B
:103860001206130A1A43130C1A4300BF094205D06B
:10387000830705D00270401C491EF9D17047000033
:10388000130030B414001500103902D310393CC0B5
:10389000FCD2490700D30CC000D504C0890002D374
:1038A0000280801C002900D5027030BC70470000E7
:1038B0000022DBE70022E3E7D2B2203A03D3010083
:1038C0009140002070475242D041524220329140F4
:1038D0004140D0409040414070477047D2B2203ABA
:1038E00003D30800D040002170472032D141D0409E
:1038F00048409140D1404840704780B50021C17197
:103900000721FFF7D5FF01BDF8B586B00C00150003
:10391000002B01D0002119600290064600E0761CC1
:10392000307802F0EBFA0028F9D1300001782D2927
:1039300001D02B2903D16A461170401C02E02B21D3
:103940006A4611700194002D03D4012D01D0252D5C
:1039500004DB002C4ED0029820604BE0002D0ADDE5
:10396000102D16D10178302913D1417820220A4335
:10397000782A0ED10AE00178302901D00A2508E022
:10398000417820220A43782A02D11025801C00E0C9
:103990000825059000E0401C01783029FBD0002468
:1039A000049000BF2CA26B465A702F00039E0500A6
:1039B000039407E0039469464978461AF6B27C43BB
:1039C000A4196D1C287802F0A2FA00BF22A33A00C5
:1039D0000100180002F0A4FA0028EBD139003000F1
:1039E000039E059AAA4207D10198002802D00298A6
:1039F00001990860002023E0049AAA1A20A35B5CC6
:103A0000D21A002A11D405DC201A03D3FFF7F6FCE2
:103A1000B0420AD000BF00BF0698002802D00120A3
:103A2000069908600024E44305E0684600782D28E4
:103A300001D1604204000198002800D005602000F8
:103A400007B0F0BD00230A220021FFF75DFF02BD91
:103A500080B50023F9E70000303132333435363792
:103A600038396162636465666768696A6B6C6D6E3C
:103A70006F707172737475767778797A00000000D0
:103A800000002115110E0D0C0B0B0A0A090909097A
:103A900009080808080808080707070707070707AD
:103AA000070707070700000080B501F0BDFD02BD54
:103AB00031B48B0707D00B780370002B20D0401C4B
:103AC000491C8B07F7D1164CE501830722D104C9A5
:103AD000131B93432B4205D104C004C9131B93430A
:103AE0002B42F9D0FF231A42027009D0120A1A425F
:103AF000427005D0120A1A42827001D0120AC270B6
:103B000031BC70470270120A4270120A8270120AA7
:103B1000C270001D04C9131B93432B42F2D0E1E78E
:103B20000101010180B502F007FA01BD02780B78AE
:103B3000002A2FD0401C491C9A422BD18207F5D174
:103B400070B41F4CE5018A0726D104C808C9161BAA
:103B500096432E4208D19A42F7D070BC12BA1BBAD3
:103B60009A4280414041704770BC12BA1BBA100E95
:103B70000BD0FF21100C084208D0100A084206D0D2
:103B8000D01A01D08041404170471B0A1B0A1B0A12
:103B9000C01A7047D01A70470B784A781202134344
:103BA0008A7812041343CA7812061343091D04C805
:103BB000161B96432E42D7D19A42EDD0CDE7000096
:103BC000010101010160027170470179002900D1F2
:103BD000704780B520210068FEF71DFF01BD10B5BC
:103BE00004002160FEF704FE2C21FEF7DBFD2071AE
:103BF000200010BD02680B689A4200D2080070478E
:103C000002680B689A4200D30800704755490A6859
:103C10005A4B1340184308607047F8B5060000205F
:103C2000504C22685B4D0C211140082902D00C2910
:103C300017D018E0206822680F21870C0F40BF1CA6
:103C4000C0204002104003D138006908484306E014
:103C5000A26A28001140491CFFF7D0FB78430100FD
:103C600002E04D4900E02900316023684B4A1B0601
:103C70001B0FD35CD940716023685B055B0FD25C7E
:103C8000D140B160E26AD20501D4454905E022681D
:103C9000520401D4490800E08908F160802109023A
:103CA000E26A520601D43F4A00E00A003261E26A49
:103CB000D20601D42A0000E0326872610322E36A6E
:103CC000134001D1B26804E0E36A1340012B02D132
:103CD0003268B2610AE0E36A1340022B01D1B1619C
:103CE00004E0E36A1A40032A00D1B561C0229202BF
:103CF000E36A134001D1B26805E0E36A13404F0064
:103D0000BB4202D13268F2610BE0E36A13408F00DC
:103D1000BB4201D1F16104E0E36A1340934200D158
:103D2000F561C0221203E36A134001D1B1680BE0D0
:103D3000E36A1340CF00BB4201D1316804E0E36A7B
:103D400013400F01BB4201D1316204E0E16A11402E
:103D5000914200D13562E16A090600D40E487062D2
:103D6000F1BD0000041002400F4A0029116802D082
:103D7000084310607047814311607047FFF8FFFFF0
:103D80000A4A0029116802D0084310607047814335
:103D90001160704700127A00006CDC020400002001
:103DA000809FD500128000001810024010100240C1
:103DB000F8B5002301229A400C681440944228D19F
:103DC0005C000326A640F5430E79012E01D0022E99
:103DD0000FD186682E40866086684F79A7403743AA
:103DE000876086889643868082888E799E401643B7
:103DF000868002682A40026002680E79A640164357
:103E00000660C2681540C560C268CD79A5401543FB
:103E1000C5605B1C102BCDD3F1BD02000020128ABF
:103E2000FFE70A4200D00120704710B5CB089B0085
:103E3000C0188B001C211940036A0F248C40A34337
:103E40000362036A8A401A43026210BDC2682B4BA8
:103E500013400A681A430B795B0313438A681A43B9
:103E6000CB6813430A691A4349691143C16070471B
:103E70000021016001718160C16001614161704791
:103E80000029816801D0012200E002220A438260F9
:103E90007047836A194381624261704710B501001F
:103EA0000020802212068B6813438B60F0231B02D4
:103EB0008C685B1E01D01440FAD18B681A4000D187
:103EC000086C10BD816810220A43826070478168C7
:103ED00004220A4382607047006C80B2704702007F
:103EE0000020CB0103D59368054A1A4000E0126810
:103EF000114000D0012070470000000003D2FFFFF6
:103F0000FFFFFFFE7047FEE7F8B598B005000C0014
:103F100017001E001E9A00BFA3A003C86B4603C370
:103F2000079406A82B21425400200D900395059775
:103F3000049616E0059C3D00039E21780798B04743
:103F40000790002800D115E10D98401C0D90641CCD
:103F50006D1EF2D1039601E0ECD501270598C0193A
:103F6000059005980078252806D100250A950B951F
:103F70000C950021059C0CE00021C9436A46059878
:103F800002F047F80700E7D10D98F5E0012008435B
:103F90000100641C20782028F8D023280CD02B287E
:103FA00004D02D2804D030280AD0E7E00220EEE724
:103FB0000A0004211143ECE7080008210143E8E767
:103FC00008001021FAE70F950AE00F9A754B9A4204
:103FD00005DA93009A185200101830380F90641CBC
:103FE00020780200303A0A2AEFD320782E2803D016
:103FF0000020C0430E9027E0641C22782A2A0AD1B0
:1040000004980068049A10600268001D049B186000
:104010000E92641C18E02D2A01D1641C00E00022DD
:104020000E950CE0002A09D10E9B5E4EB34205DAD4
:104030009E00F3185B00181830380E90641C20782E
:104040000300303B0A2BEDD306AF3985267800BF3D
:1040500057A0310001F0E4FF002801D0641C00E00B
:1040600000262A203E54385C682806D1207868282B
:1040700003D162202A217854641C12A80990237865
:10408000049A06A9039800F0C5F8611C0591002860
:1040900070D10F980A99401A0C99401A0B99401A3E
:1040A00011900420398D014212D1202069460872F6
:1040B000119800280CDD119C039D012302AA06A97A
:1040C000280000F0BFF9002854D1641EF5D10395F3
:1040D0000A9D12AC002D0DD0039E21780798B047A1
:1040E0000790002846D00D98401C0D90641C6D1E52
:1040F000F3D103963020694608720C9C002C0BDD2E
:10410000039D012302AA06A9280000F09BF90028BC
:1041100030D1641EF5D10395089C0B9D002D0DD068
:10412000039E21780798B0470790002822D00D9869
:10413000401C0D90641C6D1EF3D103960420398D34
:10414000014200D10DE7202069460872119800282D
:1041500000DC06E7119C039D059F049E012302AA33
:1041600006A9280000F06EF9002803D1641E00D1D2
:10417000DCE6F3E70020C04319B0F0BD2A2800D0E8
:1041800021E70498026802601068121D049B1A60FF
:104190000F90002804D542420F920A0004211143D7
:1041A000641C22E7CBCCCC0C000000000000000017
:1041B000686C747A4C000000622810D0682801D026
:1041C0006C2819E0002A0A680A60106803D0121DE2
:1041D0000A6000B217E0121D0A6080B217E0002AE0
:1041E0000A680A60106803D0121D0A6040B20AE033
:1041F000121D0A60C0B20AE0002A0A680A6010684C
:1042000003D0121D0A60C1177047121D0A600021F9
:104210007047000070B50C0011001E00E568252EE7
:1042200000D185E0582E37D0632E0ED0642E16D0E4
:10423000692E14D06F2E2FD0702E4AD0732E54D0EA
:10424000752E29D0782E27D078E02069421C226173
:104250000A680A601368121D0A602B5478E0012274
:104260002A20205CFFF7A8FF2060002804D52069E1
:10427000411C21612D210DE0208D810704D520698D
:10428000411C21612B2105E0C0071DD52069411C7F
:1042900021612021295417E000222A20205CFFF709
:1042A0008BFF20602820205C00070DD520680028A7
:1042B0000AD020203043782806D1206930212954A3
:1042C000401C411C21612E5420692818A060310037
:1042D00007E0086808600268001D08602260A560A9
:1042E0007821200000F036F832E0086808600568A0
:1042F000001D0860A560002D07D10024E44300BF25
:104300005DA001F099FE201A70BD266A002E03D52B
:104310002800FFF79CFA09E032000021280001F094
:10432000FFFD002801D0401B00E0300060610FE07D
:104330002069411C21612521295409E02169481C7B
:10434000206125226A54310002D0411C21612E5483
:10435000002070BDF0B583B00A00C4686F2901D198
:10436000082506E020231343782B01D00A2500E01E
:104370001025182703681E00642901D0692903D17C
:10438000002B01D571420E00002E1FD1016A0029B9
:104390001CD1082D44D12821415C090740D517279D
:1043A0003021E1753CE0002A0ED52822825C1423DE
:1043B0001340102B08D1426A0369D21A8369D21ABA
:1043C000511A012900DB816103B0F0BD02906846FB
:1043D00002707F1E019730002900FFF70FF830317F
:1043E000C8B23A2803DB6846007851380918E1550D
:1043F00030002900FFF702F8060004D00298806818
:10440000E1198842E5D30298082D09D12821415CA1
:10441000090705D5E15D302902D07F1E3021E15525
:104420001821C91B4161E2198260026A9142BADA1D
:10443000511A8161018D024A0A400285C4E70000D9
:10444000EFFF0000F8B507000020002B12D00E008F
:1044500014001D0021787068B8477060002807D0EC
:10446000F069401CF0610020641C6D1E02D0F1E771
:104470000020C043F2BD00007072696E74665F7305
:104480003A2062616420257320617267756D656EE4
:104490007400000010B50400FEF7F2FF024820602F
:1044A00000202071200010BD0079000810B5040024
:1044B00000F083FC010002D0206A01F0A8F9372146
:1044C000606A01F0A4F910BD10B5040000F075FC9D
:1044D0002179002908D0002806D0206A01F0A0F92F
:1044E000002802D0012010BD002010BD10B504002E
:1044F000FEF7C2FF0E4820600020606101F07CFAE8
:10450000E06101F0C2F92062012001F096F96062D9
:104510000420E060200010BD80B50649C06901F0AC
:1045200099FAFEF7A1FC00214160816001BD000005
:10453000B8780008A028000000210171704780B5FC
:104540000168C96B884701BD41617047F8B5060035
:104550000C0017002000FEF7F7FF00220D210020BD
:1045600001F01AFA002508E0E06880B2401E85429A
:1045700002DA3800FEF749FB6D1CE06880B2854224
:1045800011DA6068415DF06901F08EFA6068415DA2
:10459000F06901F09DFA0028E6D101220D2101F019
:1045A000FBF90020F2BD01220D21002001F0F4F9F9
:1045B0000120F2BDF7B505001E000024CC600120EB
:1045C00001F03BF90700310001F021F91FE0E86933
:1045D00001F078FA0199C9684A1C019BDA60019AD6
:1045E00052685054002C08D1380001F01EF9060022
:1045F000FEF73AFC3100FEF745FC00220B210020BB
:1046000001F0CAF90899380001F001F9641C029818
:10461000844209DAE86901F050FA0028D7D138005D
:1046200001F0FEF80028F5D001220B21002001F056
:10463000B3F90198FEF788FFF7BDF8B5060001272A
:1046400000220D21002001F0A7F90121F06901F0FD
:1046500061FA307E40007C0204430A25E107C90F5D
:10466000F06901F058FAC820FEF7CFFA64086D1E11
:10467000F4D101220D21002001F08EF9F06901F042
:104680004BFA002800D100270021F06901F042FA1E
:104690003800F2BDF0B585B005000C00012001F036
:1046A000F3FC010001A801F06EFE00202871002C2F
:1046B00008D0644902A8FEF712F9FFF772F802A8C1
:1046C000FEF727F92800FFF7B8FF002849D0E8696E
:1046D00001F029FA002C08D05BA102A8FEF7FFF830
:1046E000FFF75FF802A8FEF714F914200090962354
:1046F0005B00032201992800FFF75CFF0198C06866
:1047000001043FD080B203284CD101984068017861
:10471000552947D16946407808726846007A68741E
:10472000019840688778AF74002C08D046A103A890
:10473000FEF7D5F8FFF735F803A8FEF7EAF82120D1
:10474000FEF763FA019840688178CA430270012637
:104750000198C660072201992800FFF7F7FE00289C
:1047600004D101A801F015FE0B2069E0142000908F
:104770003223012201992800FFF71CFF0198C0682D
:10478000010404D101A801F004FE052058E080B224
:10479000012807D1019840680078297ECA43D2B227
:1047A000904204D001A801F0F4FD032048E0002C61
:1047B00009D000BF24A103A8FEF791F8FEF7F1FF8E
:1047C00003A8FEF7A6F82F21A868FDF7EBFF297CC8
:1047D000002906D1032C0ED0002C0CD000280AD1C1
:1047E00020E0082F01D0942F08D1032C03D0002CF7
:1047F00001D0002819D02E71032015E08F2F14D17D
:104800006946097A0907090F092905D00B2903D040
:104810000D2901D00F2908D1042C03D0002C01D080
:10482000002802D02E71042068612800FFF73EFEA8
:104830002879002800D1052601A801F0AAFD300042
:1048400005B0F0BDBC4900082E0038B504000125B4
:1048500000220D21002001F09FF80121E06901F004
:1048600059F90021E06901F056F91920FEF7CDF958
:104870000121E06901F04FF91920FEF7C6F9012284
:104880000D21002001F088F8E06901F045F90028C9
:1048900000D100250021E06901F03CF9280032BD7B
:1048A000F8B584B005000C0000F066FA0700280097
:1048B00000F068FA0090022001F0E6FB010001A878
:1048C00001F061FD00202871002C08D03BA102A856
:1048D000FEF705F8FEF765FF02A8FEF71AF82800B4
:1048E000FFF7B3FF002813D0012200BF36A10198C3
:1048F00001F04FFC0198016889688847E86901F078
:1049000012F9072201992800FFF720FE002851D153
:1049100001A801F03EFD0B2005B0F0BD2871052176
:1049200069610124142000903B00320001992800A5
:10493000FFF740FE0198C068000428D028790028BD
:10494000F0D103240198C06880B20428EADD019800
:10495000426811780120002921D1022152181378D0
:10496000C12BDFD152786A74019B5B685918897832
:10497000A974297C0029D1D01107090F0929CDD0AC
:104980000B29CBD00D29C9D00F29C7D0CAE72800E1
:10499000FFF78CFD01A801F0FCFC2000BCE7C02360
:1049A0000B4001D10121D9E7890601D00321D5E7C8
:1049B0000421D3E70524009EB4E7000042555320AC
:1049C000494E49543A200000810000003EB50400E1
:1049D000FFF77AFD00284ED0200000F0CDF9050049
:1049E0006069052801D0042801D1022000E00120DF
:1049F00001F04AFB010001A801F0C5FC9F49A06835
:104A0000FDF7F1FEC279002A08D00100019801F0FB
:104A1000C0FB01980168C96888470FE060690328F6
:104A200002D1022214A102E0012200BF13A10198C9
:104A300001F0AFFB0198016889688847E06901F0DF
:104A400072F8072201992000FFF780FD00280CD0A2
:104A5000142000902B008222520001992000FFF7C1
:104A6000A9FD0198C0680004F2D12000FFF71EFDE7
:104A700001A801F08EFC37BD010000003E0010B51A
:104A80000C00207A02280DD120002168496988474E
:104A90006168081801787F2904D18078782801D1CD
:104AA000012010BD002010BDF1B586B00E0015002C
:104AB0001F000024049469460C70069800F05CF90D
:104AC0000390069800F05EF9029006984069052868
:104AD00001D0042801D1022000E0012001F0D4FA25
:104AE000010001A801F04FFC2A003100019801F0FB
:104AF00050FB0198016889688847069D686A00F044
:104B00008FFE0028FAD0E86901F00DF8072201991C
:104B10002800FFF71BFD002804D101A801F039FC93
:104B20000B2047E0002606950597049F6846047809
:104B3000039D1DE001990698FFF7A1FF002801D011
:104B4000652F2CDB069800F017F90500761C012470
:104B5000182106988068FDF725FE002805D10198E8
:104B600001680969884700281CD0019801F0CEFA35
:104B70000598864220D2142000902B00029A0199B9
:104B80000698FFF717FD0198C068010414D080B2A1
:104B90000428CFDC01A801F0FCFB03200AE0384D1B
:104BA0007F1CD3E701A801F0F4FB0A2002E001F02A
:104BB000F0FB072007B0F0BD0698FFF777FC002C4C
:104BC00001A8F4D101F0E5FB0420F3E710B50400DF
:104BD0002F21A068FDF7E6FD6169032904D016D3F3
:104BE00005290DD006D310BD002801D077A00CE018
:104BF0007BA00AE0002801D07CA006E083A004E0AE
:104C0000002801D087A000E08EA0FDF757FD10BD61
:104C10001CB5040032216846FDF757FE0100200054
:104C20001130FEF723F86846FDF765FD6846FDF78D
:104C300070FE13BD10B504002F21A068FDF7B2FD72
:104C40006169032904D015D305290DD006D311E0DD
:104C5000002801D00BA00EE00BA00CE0002801D032
:104C60000AA008E00AA006E0002801D009A002E09E
:104C700009A000E009A0FDF721FD10BDF10300002F
:104C8000881300004133000033000000413400006D
:104C90003400000041350000350000003F3F3F0078
:104CA000D0B504002079002836D1200000F075F836
:104CB000200021688969884767690026002F0CD089
:104CC000F81E012802D9801E05D013E0390020000B
:104CD000FFF7E0FC0DE0052108E000212000FFF7D0
:104CE000D9FC06002079002804D100212000FFF71C
:104CF000D7FD06002079002806D0002F08D000BF7D
:104D00006DA0FDF7DBFC03E020002168C96988473E
:104D1000E6602079002800D06069D0BD10B504009D
:104D20000121E06900F0F6FE0121E06900F0F3FEE8
:104D30000120FDF76AFFE06900F0EEFE012801D0D6
:104D400046A00EE00021E06900F0E5FE0120FDF73D
:104D50005CFFE06900F0E0FE002801D147A000E020
:104D60004DA0FDF7ABFC0021E06900F0D4FE00216E
:104D7000E06900F0CFFE10BD80B5FEF775F8FEF7D4
:104D800097F802BD80B503218068FDF70BFD002870
:104D900001D0132002BD0D2002BD10B50400212159
:104DA000A068FDF7FFFC20746821A068FDF70BFDEB
:104DB000002800D13320207610BD80B57021806896
:104DC000FDF701FD1421484302BD00004155544F39
:104DD0002C2049534F20393134312D32000000004E
:104DE00049534F20393134312D3200004155544F51
:104DF0002C2049534F2031343233302D3420284B6E
:104E000057502035424155442900000049534F2056
:104E100031343233302D3420284B57502035424125
:104E2000554429004155544F2C2049534F203134CB
:104E30003233302D3420284B5750204641535429CB
:104E40000000000049534F2031343233302D3420DC
:104E5000284B5750204641535429000049534F399D
:104E60003134312F313432333020776972696E67D3
:104E7000206661696C6564205B315D0049534F3980
:104E80003134312F313432333020776972696E67B3
:104E9000206973204F4B000049534F393134312F73
:104EA000313432333020776972696E672066616908
:104EB0006C6564205B305D004F4B000010B5040052
:104EC00001F072FA01482060200010BDC877000888
:104ED00010B5040001F068FA024820600120207635
:104EE000200010BD1878000810B5040001F05CFA2D
:104EF0009F48206001202076102000F095FB0028BC
:104F000002D0210001F01AFDE061200010BD000078
:104F100080B500BF01A0FDF7D1FB01BD5341452085
:104F20004A31393339202843414E2032392F323526
:104F30003029000080B52F218068FDF733FC002860
:104F400001D08CA000E08CA0FDF7B8FB01BD1CB522
:104F500004008A4800908A49A068FDF744FCC179A2
:104F6000002915D0042905D18378017800911A0011
:104F7000C17806E0022909D10021009100230278BE
:104F8000417801A801F070FD019800E00020009038
:104F90007C49A068FDF727FCC179002904D000787E
:104FA000C006C00E6946C8707749A068FDF71BFCB3
:104FB000C179002902D0007869460870009816BDB2
:104FC00080B500F04BFF00F062FF01BD3EB504006C
:104FD00015006846002200230CC02A006846FCF732
:104FE000E7FB1D21A068FDF7DDFB002803D12900A8
:104FF0006846FDF71FFF2A006946200000F021F8EF
:10500000002801D103203EBD6846827841780078AF
:1050100001F031FD0100200000F07BF8200000F0DD
:105020001AF8002801D007203EBD04203EBD10B56F
:1050300004002168896988470120E06020710A2006
:1050400010BD80B5092A01DB002002BDD3B2D2B267
:1050500001F00FFA02BDF8B584B0050000F054F974
:105060000700684601F00CFD0024002000F0E5FB7D
:105070000600390000F0CBFB286900F09BFE0028F9
:105080002DD06946286900F056FE002827D06846D2
:10509000837B00226946686901F0A0FD3900300079
:1050A00000F0B5FB0098000AFF2109020140E8204A
:1050B0000002814208D0EB200002814220D0EC2087
:1050C0000002814213D005E06946E86901F0AAFCBC
:1050D000002804D06946280000F058F8641C30000D
:1050E00000F09EFB0028C7D0200005B0F0BD694647
:1050F000E86901F02FFC6946280000F065F8EDE74B
:105100006946E86901F055FC6946280000F068F836
:10511000E4E77CB504000E02874D012000900123D6
:105120002A003100206900F0FEFD022000900123DA
:10513000FF221204E8210904206900F0F4FDFF2099
:105140000002304006000320009001232A00EC21D9
:1051500009043143206900F0E6FD0420009001239A
:105160002A00EB2109043143206900F0DCFD73BD06
:10517000687800084141000041000000F9FFEA188A
:10518000EE030000ED030000EF0300003EB5050054
:105190000C0032216846FDF798FB1821A868FDF73E
:1051A00001FB00286A4604D02100280000F044F8E2
:1051B00003E06179A01DFDF7B0FD6846FDF79BFA9D
:1051C0006846FDF7A6FB37BD80B5C069C28800BF41
:1051D00060A16846FEF730F96846FDF76FFA01BD39
:1051E00038B584B005000C0032216846FDF76DFB30
:1051F0001821A868FDF7D6FA002805D06A462100D4
:10520000280000F019F80FE0A27900BF53A102A80E
:10521000FEF712F902A96846FDF749FC6A46617972
:10522000491EE01DFDF779FD6846FDF764FA684602
:10523000FDF76FFB05B030BDFEB50D001400210079
:105240006846FEF7CCFCFDF7D3FA1E21FDF7AAFA5B
:1052500000284BD02868C000400FFDF703FB010079
:105260002000FDF7D8FB6846FEF7AFFC28688001F8
:10527000860B300CFDF7F6FA01002000FDF7CBFBA2
:105280000F27300B3840FDF7EDFA01002000FDF745
:10529000C2FB300A3840FDF7E5FA01002000FDF7B7
:1052A000BAFB30093840FDF7DDFA01002000FDF7B8
:1052B000B2FB3E403000FDF7D5FA01002000FDF7BB
:1052C000AAFB6846FEF781FC2E683006000FFDF74A
:1052D000C9FA01002000FDF79EFB37403800FDF7BA
:1052E000C1FA01002000FDF796FB04E00122210035
:1052F0002868FDF77AFC6846FEF767FC22006979AA
:10530000A81DFDF70AFDF7BD10B5FDF771FA6D2177
:10531000FDF759FA0400FDF76BFA2021FDF742FA78
:10532000002802D0A000001900E02000002C01D0CD
:10533000800010BD014810BD00FFFF00DC0500002B
:10534000704780B5080002784178807801F093FBBF
:1053500001BD0000252E335800000000252E3258D4
:105360003A20000010B5040000F023FE01002000E8
:10537000C96A884710BDFEE738B505000C00A54294
:1053800005D02868401980472D1DA542F9D131BDAF
:10539000F8B504000F00150000BF00BF1C480168ED
:1053A000002900D11B491C4A914201D3002601E08B
:1053B0000E000C31016000BF00BF002E01D10120A2
:1053C000F2BD37607460B5600020F2BD80B5104951
:1053D000124800F001F801BDF8B50D682E0014D197
:1053E000F1BD88470DE005002E00BE42F8D00C3E0E
:1053F00071680800F9D00020706030680028F0D093
:10540000884720688542F0D0EDE707000C00ECE704
:10541000540600206C060020280800206C0600209E
:1054200010B5040032214030FDF74FFA200048301B
:1054300000210180418001718160200010BD10B504
:10544000624C2078002808D101202070201DFFF731
:10545000E7FF5F4A5F49FEF766F9201D10BD1CB5E6
:10546000802080025C490A6802430A608A6810430F
:1054700088600C200090684602210171032141716F
:105480000021C1809024E40569462000FEF790FCCD
:10549000012202212000FEF7C8FC01220321200086
:1054A000FEF7C3FC13BD10B586B00091002001903B
:1054B0000290039005900C200490484C694620000F
:1054C00001F0B0FB20680121014321600122444921
:1054D000200001F00BFC206A402101432162414879
:1054E0000168FF22914380220A4302608020400528
:1054F0003D49086006B010BD10B501000A004832F1
:105500005388364848240C5BA34207D2C46924065A
:105510000CD55C1C5480C95C018510BD016A402219
:105520000A4302620022314901F0E0FB10BD10B5D0
:1055300004002F4800884C346168002902D0C0B2B2
:105540008847207010BD38B504000820294D29680F
:10555000014002D06968084368602868400602D5A7
:105560002000FFF7C9FF2868800602D52000FFF75A
:10557000DEFF31BD80201F4A13680340FCD09181BB
:10558000704770B54022154C23681340FCD10600CB
:1055900035004835002068808A882A8009683000F4
:1055A000FCF706F94820305A00280DD001220F4997
:1055B000200001F09BFB6888411C6980305C8021E1
:1055C000E2690A40FCD0208570BD00008005002003
:1055D000580600206B7B0008141002400044004075
:1055E000050105001CE400E000E100E00601060002
:1055F000244400401C44004080B5FFF720FFFFF723
:10560000A2FF01BD10B5040000F0D3FC0100200092
:105610000969884710BD10B5040000F0CAFC0100FC
:105620002000C969884710BD10B5040001E001F0F1
:105630007BFB2000FBF75AFC002805D103480068DB
:105640000028F4D08047F4E710BD00BF5C060020BE
:1056500082B04748016801220A4302604168454A16
:105660000A4042600168444A0A4002600168434AB5
:105670000A4002604168424A0A404260C16A0F2201
:105680009143C162016B3F4A0A400263416B0122B0
:1056900091434163002181600091019101681204EE
:1056A0000A430260A021C9018022920203681340CC
:1056B0000193009B5B1C0093019B002B02D1009B7C
:1056C0008B42F3D101688903CA0F01920199012924
:1056D00026D111212C4A1160416841604168416026
:1056E00041682A4A0A4042604168882252030A43BC
:1056F00042600168802252040A43026080218904CA
:1057000002680A40FCD0416803229143416041682D
:1057100002220A4342600C2142680A40082AFBD157
:1057200002B0704770B51A4C21681A480F250C2238
:105730000A40082A12D1216822688E0C2E40B61C1D
:10574000C0214902114003D130001349484305E00C
:10575000A16A2940491CFDF751FE70430F490861B9
:1057600020680A6900090540485DC2400A6170BDB1
:10577000001002400CB8FF08FFFFF6FEFFFFFBFF22
:10578000FFFFC0FFACFEFFFF00200240FF7FC0FF15
:105790000410024000127A0000093D0014000020AD
:1057A00000B55B480068FA218900FDF727FE5949DA
:1057B000088000BD5848416802220A43426041689F
:1057C000820D0A43426001688022D2020A430260CD
:1057D0000168802292020A43026070471FB50400EC
:1057E0004C4889004118496821604C4901916A463A
:1057F000008840181080002010810821518090728C
:105800006946206801F094FA200004B010BD0268D7
:10581000D16200210268516202681182006871E061
:105820000068018AC807C00F704700B50068406A69
:1058300038490988FDF7E2FD00BD70B50600012476
:10584000374D2878002804D12C700021281DFFF73F
:10585000C5FF6878002805D16C7001212800083048
:10586000FFF7BCFF002E02D0012E02D004E0281D5D
:1058700070BD2800083070BD002070BD10B5040058
:105880000221FFF7ABFF200010BD10B5254C20789A
:10589000002804D101202070201DFFF7EFFF201DFC
:1058A00010BD21480188C90700D4704780B5018820
:1058B0001E4A0A40028017480069002800D080472D
:1058C00001BD3EB5040013480161144901916A46C7
:1058D000008840181080002010815080144D6946C7
:1058E000280001F025FAA88901210143A98180201F
:1058F00080031049086020003EBD0D48C1620021B0
:1059000041620182018801220A430280704700003F
:10591000240000202800002018100240FFFF000093
:105920000C0600204006002010440140FEFF00004D
:105930000044014000E100E003490A6801231130FE
:10594000834013430B6070471410024030B500BF12
:1059500024A3800018584B0003259D40EC43012AE6
:1059600013D1026822400260012501229A40036897
:105970001343036083888D40AB438380816821405B
:10598000816081680A43826002E001682140016011
:10599000C1680C40C46030BD0123002A00D1103121
:1059A0008B4000BF0FA18000085883617047000042
:1059B0000CA280001058008A01228A400240100088
:1059C00000D00120704700008023DB009A4207D1FD
:1059D00004A280001058828801238B4013438380E7
:1059E000704700000000004800040048000800481C
:1059F000000C00480010004852480178002901D1ED
:105A000001210170401C70471CB500220A210020B2
:105A1000FFF7DAFF002209210020FFF7D5FFC020A1
:105A2000C0000090684602210171032141710021EC
:105A3000C1809024E40569462000FEF7B9F90122EF
:105A400009212000FEF7F1F901220A212000FEF7CA
:105A5000ECF913BD10B586B00091002001900290C2
:105A6000039005900C200490374C6946200001F00B
:105A7000D9F8206801210143216001223349200027
:105A800001F034F9206A4021014321623048016865
:105A90000902090A8022D2050A430260802000051B
:105AA0002C49086006B010BD80B580222648C36925
:105AB0001340FCD001F008F901BD27480068010639
:105AC000C80F704780B5204801F002F9C0B202BD8E
:105AD00070B50C00214E22480068FA218900FDF7BC
